:0400000007EF00F016
:0A0008007C826BED0AF02EEF13F07E
:10100000003738392F3435362A3132332D23303DED
:051010002B2569000022
:101016002E50800B376E2E502E24396E2DAE16EFC5
:1010260008F018EF08F019EF08F039803950D8B4F5
:101036001FEF08F021EF08F036EF08F03928D8A4A2
:1010460027EF08F029EF08F031EF08F0000E2B6EBD
:10105600000E2C6E000E2D6E000E2E6E2D8E000EC6
:101066002E6E3EEF08F0000E2B6E000E2C6E000E5C
:101076002D6E000E2E6E3250800B386E375038189B
:10108600D8B448EF08F04AEF08F04BEF08F0378C79
:1010960032503224386E31AE53EF08F055EF08F077
:1010A60056EF08F038803850D8B45CEF08F05EEFA1
:1010B60008F073EF08F03828D8A464EF08F066EF5C
:1010C60008F06EEF08F0000E2F6E000E306E000E68
:1010D600316E000E326E318E000E326E7BEF08F0EE
:1010E600000E2F6E000E306E000E316E000E326E48
:1010F6003950385CD8B082EF08F084EF08F0ABEFD7
:1011060008F037AC89EF08F08BEF08F08DEF08F0A8
:10111600800E371A39C03AF038C039F03AC038F084
:101126002BC03AF02FC02BF03AC02FF02CC03AF06B
:1011360030C02CF03AC030F02DC03AF031C02DF05E
:101146003AC031F02EC03AF032C02EF03AC032F03A
:10115600000E3A6E395038C033F0346A335E000EF2
:10116600345A34BEC0EF08F0345009E11A0E335C2D
:10117600D8A0C0EF08F0C2EF08F0F9EF08F02B5046
:101186002C102D102E10D8A4CBEF08F0CEEF08F0BF
:10119600010ECFEF08F0000E3A6E000E2B6E000E19
:1011A6002C6E000E2D6E000E2E6E38C039F002EF3A
:1011B60009F03AA0E1EF08F0E3EF08F0E9EF08F0F4
:1011C600D8903A3001093A6EEBEF08F0D8903A32EF
:1011D6002BA0F0EF08F0F2EF08F0F3EF08F03A8EEC
:1011E6002E342E322D322C322B32392A3850395C9D
:1011F600D8A000EF09F002EF09F0DCEF08F037BCE9
:1012060007EF09F009EF09F049EF09F03950D8A4C2
:101216000FEF09F011EF09F01BEF09F0000E2B6E2E
:10122600000E2C6E000E2D6E000E2E6E6AEF0AF06A
:101236002F502B2630502C2231502D2232502E2268
:101246002EA028EF09F02AEF09F0D6EF09F03AA010
:101256002FEF09F031EF09F037EF09F0D8903A3067
:1012660001093A6E39EF09F0D8903A322BA03EEFD9
:1012760009F040EF09F041EF09F03A8E2E342E3294
:101286002D322C322B32392AD6EF09F02F502B5C17
:1012960030502C5831502D582E50800A336E325013
:1012A600800A3358D8B05AEF09F05CEF09F087EF9F
:1012B60009F02B502F5C336E2C503058346E2D5065
:1012C6003158356E2E503258366EFF0E33242B6E43
:1012D600FF0E34202C6EFF0E35202D6EFF0E3620AD
:1012E6002E6E800E371A3A6C3A50D8A47DEF09F06C
:1012F6007FEF09F08FEF09F0010E2B26000E2C224E
:101306002D222E228FEF09F02F502B5E30502C5AB3
:1013160031502D5A32502E5A2B502C102D102E1083
:10132600D8A498EF09F09AEF09F0CFEF09F03A50F8
:10133600D8A4A0EF09F0A2EF09F0CFEF09F0000E54
:101346002B6E000E2C6E000E2D6E000E2E6E6AEFAA
:101356000AF0D8902B362C362D362E363AAEB6EF0E
:1013660009F0B8EF09F0B9EF09F02B803AA0BEEF0B
:1013760009F0C0EF09F0C4EF09F0D8803A36C6EF9D
:1013860009F0D8903A363950D8B4CCEF09F0CEEF00
:1013960009F0CFEF09F039062DAED4EF09F0D6EFFC
:1013A60009F0ACEF09F0000E386E3AAEDDEF09F049
:1013B600DFEF09F0F7EF09F03AC033F07F0E33168E
:1013C600D8B4E8EF09F0EAEF09F0EEEF09F0010E04
:1013D600386EF7EF09F02BA0F3EF09F0F5EF09F0FF
:1013E600F7EF09F0EAEF09F03850D8B4FDEF09F04D
:1013F600FFEF09F02AEF0AF0010E2B26000E2C2231
:101406002D222E222EA00AEF0AF00CEF0AF02AEF68
:101416000AF02BC033F02CC034F02DC035F02EC0AE
:1014260036F03634363235323432333233C02BF07E
:1014360034C02CF035C02DF036C02EF03928D8B483
:1014460027EF0AF029EF0AF02AEF0AF0392A39289D
:10145600D8B430EF0AF032EF0AF03AEF0AF039501A
:10146600D8A438EF0AF03AEF0AF04CEF0AF0000E73
:101476002B6E000E2C6E000E2D6E000E2E6E395049
:10148600D8A448EF0AF04AEF0AF04CEF0AF0000E33
:10149600376E39A051EF0AF053EF0AF056EF0AF013
:1014A6002D8E57EF0AF02D9ED89039302E6E37AE1E
:1014B6005FEF0AF061EF0AF062EF0AF02E8E2BC0A2
:1014C6002BF02CC02CF02DC02DF02EC02EF01200CB
:1014D6000600FACF02F0FBCF03F0F2A875EF0AF090
:1014E60077EF0AF080EF0AF0F2A27CEF0AF07EEFC7
:1014F6000AF080EF0AF019EC14F0F0A685EF0AF076
:1015060087EF0AF090EF0AF0F0A08CEF0AF08EEF6A
:101516000AF090EF0AF017EC14F0F0A895EF0AF035
:1015260097EF0AF0A0EF0AF0F0A29CEF0AF09EEF08
:101536000AF0A0EF0AF015EC14F0F2A6A5EF0AF0F7
:10154600A7EF0AF0C2EF0AF0F2A0ACEF0AF0AEEF96
:101556000AF0C2EF0AF081A8B3EF0AF0B5EF0AF07D
:10156600C2EF0AF07904D8A4BBEF0AF0BDEF0AF087
:10157600C2EF0AF0000E796E000EE7EC13F0F2A649
:10158600C7EF0AF0C9EF0AF0E4EF0AF0F2A0CEEFD7
:101596000AF0D0EF0AF0E4EF0AF081B8D5EF0AF0CE
:1015A600D7EF0AF0E4EF0AF07950D8A4DDEF0AF09D
:1015B600DFEF0AF0E4EF0AF0010E796E010EE7ECB8
:1015C60013F0F2A6E9EF0AF0EBEF0AF006EF0BF0E4
:1015D600F2A0F0EF0AF0F2EF0AF006EF0BF081AAA4
:1015E600F7EF0AF0F9EF0AF006EF0BF07804D8A44B
:1015F600FFEF0AF001EF0BF006EF0BF0000E786E2E
:10160600000EDAEC13F0F2A60BEF0BF00DEF0BF079
:1016160028EF0BF0F2A012EF0BF014EF0BF028EF0F
:101626000BF081BA19EF0BF01BEF0BF028EF0BF064
:101636007850D8A421EF0BF023EF0BF028EF0BF036
:10164600010E786E010EDAEC13F0F2A62DEF0BF018
:101656002FEF0BF04AEF0BF0F2A034EF0BF036EF62
:101666000BF04AEF0BF081AC3BEF0BF03DEF0BF0CC
:101676004AEF0BF07704D8A443EF0BF045EF0BF0DD
:101686004AEF0BF0000E776E000ECDEC13F0F2A6CB
:101696004FEF0BF051EF0BF06CEF0BF0F2A056EFA3
:1016A6000BF058EF0BF06CEF0BF081BC5DEF0BF01D
:1016B6005FEF0BF06CEF0BF07750D8A465EF0BF0F3
:1016C60067EF0BF06CEF0BF0010E776E010ECDECB1
:1016D60013F0F2A671EF0BF073EF0BF08EEF0BF039
:1016E600F2A078EF0BF07AEF0BF08EEF0BF081AEF5
:1016F6007FEF0BF081EF0BF08EEF0BF07604D8A4A2
:1017060087EF0BF089EF0BF08EEF0BF0000E766E85
:10171600000EC0EC13F0F2A693EF0BF095EF0BF072
:10172600B0EF0BF0F2A09AEF0BF09CEF0BF0B0EFDE
:101736000BF081BEA1EF0BF0A3EF0BF0B0EF0BF0B7
:101746007650D8A4A9EF0BF0ABEF0BF0B0EF0BF08F
:10175600010E766E010EC0EC13F09DACB5EF0BF0EA
:10176600B7EF0BF0C0EF0BF09EACBCEF0BF0BEEF8B
:101776000BF0C0EF0BF021EC14F0F2AAC5EF0BF062
:10178600C7EF0BF0D0EF0BF0F2A4CCEF0BF0CEEFDF
:101796000BF0D0EF0BF006EC14F09DA0D5EF0BF09C
:1017A600D7EF0BF0E0EF0BF09EA0DCEF0BF0DEEFD7
:1017B6000BF0E0EF0BF000EC14F09DA2E5EF0BF060
:1017C600E7EF0BF0F0EF0BF09EA2ECEF0BF0EEEF75
:1017D6000BF0F0EF0BF00CEC14F0A0A2F5EF0BF011
:1017E600F7EF0BF000EF0CF0A1A2FCEF0BF0FEEF11
:1017F6000BF000EF0CF0FAEC13F09DA805EF0CF0DF
:1018060007EF0CF010EF0CF09EA80CEF0CF00EEFAB
:101816000CF010EF0CF01BEC14F09DAA15EF0CF079
:1018260017EF0CF020EF0CF09EAA1CEF0CF01EEF49
:101836000CF020EF0CF024EC14F09DA625EF0CF034
:1018460027EF0CF030EF0CF09EA62CEF0CF02EEFED
:101856000CF030EF0CF084EC13F0A0A635EF0CF092
:1018660037EF0CF040EF0CF0A1A63CEF0CF03EEF8A
:101876000CF040EF0CF013EC14F09DA645EF0CF0C5
:1018860047EF0CF050EF0CF09EA64CEF0CF04EEF2D
:101896000CF050EF0CF023EC14F09DA455EF0CF077
:1018A60057EF0CF060EF0CF09EA45CEF0CF05EEFCF
:1018B6000CF060EF0CF01FEC14F0A0A065EF0CF03C
:1018C60067EF0CF070EF0CF0A1A06CEF0CF06EEF70
:1018D6000CF070EF0CF01DEC14F003C0FBFF02C01F
:1018E600FAFF7C9211001550800B226E15501524BC
:1018F600296E14AE81EF0CF083EF0CF084EF0CF040
:1019060029802950D8B48AEF0CF08CEF0CF0A1EFA7
:101916000CF02928D8A492EF0CF094EF0CF09CEF71
:101926000CF0000E126E000E136E000E146E000EFA
:10193600156E148E000E156EA9EF0CF0000E126EC9
:10194600000E136E000E146E000E156E1950800BED
:10195600221A195019242A6E18AEB4EF0CF0B6EFFD
:101966000CF0B7EF0CF02A802A50D8B4BDEF0CF07B
:10197600BFEF0CF0D4EF0CF02A28D8A4C5EF0CF07A
:10198600C7EF0CF0CFEF0CF0000E166E000E176EC0
:10199600000E186E000E196E188E000E196EDCEF12
:1019A6000CF0000E166E000E176E000E186E000E6E
:1019B600196E1650171018101910D8A4E5EF0CF070
:1019C600E7EF0CF0FFEF0CF0000E126E000E136E38
:1019D600000E146E000E156E800E14127F0E151278
:1019E6002250151212C012F013C013F014C014F0D6
:1019F60015C015F042EF0EF02950D8A405EF0DF0F2
:101A060007EF0DF011EF0DF0000E126E000E136EC3
:101A1600000E146E000E156E42EF0EF02A5029C00D
:101A26001AF01B6A1A5E000E1B5A7F0E1A24236ECA
:101A3600000E1B20246E12C01EF013C01FF014C02F
:101A460020F015C021F0000E126E000E136E000E6F
:101A5600146E000E156E000E256E000E266E000E1C
:101A6600276E000E286E000E2A6E72EF0DF02A50B9
:101A7600D8B440EF0DF042EF0DF059EF0DF0D890CD
:101A86001E361F3620362136D890123613361436B7
:101A9600153628AE51EF0DF053EF0DF054EF0DF063
:101AA6001280D890253626362736283616501E5CE4
:101AB60017501F581850205819502158D8A066EFB3
:101AC6000DF068EF0DF071EF0DF0288C16501E5ECC
:101AD60017501F5A1850205A1950215A2A2A190EDF
:101AE6002A6478EF0DF07AEF0DF03AEF0DF01E5004
:101AF6001F1020102110D8B483EF0DF085EF0DF0E4
:101B06009DEF0DF025809DEF0DF0D890123613361F
:101B16001436153628AE92EF0DF094EF0DF095EFD2
:101B26000DF01280D890253626362736283623061D
:101B3600D8A0240614AEA2EF0DF0A4EF0DF088EFA6
:101B46000DF0000E2A6E28AEABEF0DF0ADEF0DF0E6
:101B5600D1EF0DF0FF0E25141A6EFF0E26141B6E24
:101B6600FF0E27141C6E7F0E28141D6E1A501B10B4
:101B76001C101D10D8B4C2EF0DF0C4EF0DF0C8EF65
:101B86000DF0010E2A6ED1EF0DF012A0CDEF0DF083
:101B9600CFEF0DF0D1EF0DF0C4EF0DF02A50D8B411
:101BA600D7EF0DF0D9EF0DF0FDEF0DF0010E122677
:101BB600000E13221422152215A0E4EF0DF0E6EF15
:101BC6000DF0FDEF0DF012C01AF013C01BF014C09B
:101BD6001CF015C01DF01D341D321C321B321A328A
:101BE6001AC012F01BC013F01CC014F01DC015F073
:101BF600234A242A24BE08EF0EF0245008E12328A5
:101C0600D8A008EF0EF00AEF0EF015EF0EF0000E5A
:101C1600246E2368000E126E000E136E000E146EF4
:101C2600000E156E24BE22EF0EF0245006E12304AA
:101C3600D8B020EF0EF022EF0EF030EF0EF0000ECF
:101C4600246E000E236E000E126E000E136E000E32
:101C5600146E000E156E000E226E23C029F029A008
:101C660037EF0EF039EF0EF03CEF0EF0148E3DEF2D
:101C76000EF0149ED8902930156EF3EF0CF012007A
:101C86000C6E0C50D8B44AEF0EF04CEF0EF06EEF1F
:101C96000EF007BE53EF0EF051EF0EF06EEF0EF0A2
:101CA60004C008F005C009F006C00AF007C00BF032
:101CB600081E091E0A1E0B1E082A000E09220A22E9
:101CC6000B2208C00EF009C00FF00AC010F00BC0BE
:101CD60011F076EF0EF004C00EF005C00FF006C04E
:101CE60010F007C011F00450051006100710D8A414
:101CF6007FEF0EF081EF0EF08BEF0EF0000E046E0C
:101D0600000E056E000E066E000E076E1CEF0FF03D
:101D1600960E0D6E95EF0EF00D2AD89011321032F8
:101D26000F320E32000E0E14086E000E0F14096EDE
:101D3600000E10140A6EFE0E11140B6E08500910D8
:101D46000A100B10D8A4AAEF0EF0ACEF0EF08FEF2E
:101D56000EF0BAEF0EF00D2A010E0E26000E0F221F
:101D660010221122D890113210320F320E32000E8C
:101D76000E14086E000E0F14096E000E10140A6E73
:101D8600FF0E11140B6E085009100A100B10D8A480
:101D9600CFEF0EF0D1EF0EF0AEEF0EF0D9EF0EF062
:101DA6000D06D8900E360F361036113610BEDEEF01
:101DB6000EF0E0EF0EF0E8EF0EF0020E0D60E6EF2B
:101DC6000EF0E8EF0EF0D3EF0EF00DB0EDEF0EF0E3
:101DD600EFEF0EF0F0EF0EF0109ED8900D320DC022
:101DE60008F0096A0A6A0B6A08C00BF00A6A096AEF
:101DF600086A08500E1209500F120A5010120B50A2
:101E060011120C50D8B40AEF0FF00CEF0FF014EFCC
:101E16000FF007BE13EF0FF011EF0FF014EF0FF0F6
:101E2600118E0EC004F00FC005F010C006F011C0F0
:101E360007F012000001CF51D011D8A425EF0FF002
:101E460027EF0FF02BEF0FF0000ED16FC6EF0FF05C
:101E5600C69A20EE06F0CF51D926D051DA22DFA05D
:101E660037EF0FF039EF0FF041EF0FF0CFC045F02D
:101E7600D0C046F083EC11F07DEF0FF020EE06F0B7
:101E8600CF51D926D051DA22DFB04CEF0FF04EEF0A
:101E96000FF07DEF0FF020EE06F0CF51D926D0518E
:101EA600DA22DFA659EF0FF05BEF0FF05EEF0FF0CF
:101EB600C58E6CEF0FF020EE06F0CF51D926D0512B
:101EC600DA22DFB669EF0FF06BEF0FF06CEF0FF071
:101ED600C59EC69EC69CC68820EE05F0CF51D92663
:101EE600D051DA22DF50C86ECFC004F0D0C005F062
:101EF600B2EC13F010EC14F0000120EE06F0CF5116
:101F0600D926D051DA22DFA28BEF0FF08DEF0FF03A
:101F160090EF0FF0C78E9EEF0FF020EE06F0CF5138
:101F2600D926D051DA22DFB29BEF0FF09DEF0FF0EA
:101F36009EEF0FF0C79E20EE06F0CF51D926D05166
:101F4600DA22DFA4A9EF0FF0ABEF0FF0AEEF0FF040
:101F5600C78CBCEF0FF020EE06F0CF51D926D0513A
:101F6600DA22DFB4B9EF0FF0BBEF0FF0BCEF0FF0E2
:101F7600C79CCFC004F0D0C005F05FEC13F0C68A52
:101F8600010E0001D16FD1511200010E0C6E0450EA
:101F96000510D8B4D1EF0FF0D3EF0FF0E4EF0FF048
:101FA60004C0D9FF05C0DAFFDF30E832E832070B9C
:101FB600066E070E0664E2EF0FF0E4EF0FF047EF50
:101FC60010F0000E0C6E68EF10F004C0D9FF05C0CB
:101FD600DAFFDF30E832E832070B066E010E076ED5
:101FE600062AF8EF0FF0D8900736062EF6EF0FF018
:101FF6000750FF0A086E04C0D9FF05C0DAFFDF509C
:10200600070B096E0950020D940EF324D96E000ECB
:10201600F420DA6EDECF0AF0DDCF0BF00AC0D9FF6E
:102026000BC0DAFF0850DF1668EF10F004C0D9FFC6
:1020360005C0DAFFDF30E832E832070B066E010E24
:10204600076E062A29EF10F0D8900736062E27EFDE
:1020560010F004C0D9FF05C0DAFFDF50070B086E89
:102066000850020D940EF324D96E000EF420DA6E99
:10207600DECF09F0DDCF0AF009C0D9FF0AC0DAFFCA
:102086000750DF1268EF10F004C0D9FF05C0DAFF71
:10209600DFBC50EF10F053EF10F0010E54EF10F0CC
:1020A600000E066E076A0750000AD8B45DEF10F0FE
:1020B600E4EF0FF00650000AD8B4E8EF0FF0010A7B
:1020C600D8B419EF10F0E4EF0FF00C501200010E27
:1020D6000D6E04500510D8B473EF10F075EF10F0C4
:1020E60086EF10F004C0D9FF05C0DAFFDF30E83212
:1020F600E832070B076E070E076484EF10F086EFD1
:1021060010F0E9EF10F0000E0D6EFEEF10F004C0B7
:10211600D9FF05C0DAFFDF30E832E832070B076E79
:10212600010E086E072A9AEF10F0D8900836072E8F
:1021360098EF10F00850FF0A096E04C0D9FF05C0D9
:10214600DAFFDF50070B0A6E0A50020D8A0EF324DF
:10215600D96E000EF420DA6EDECF0BF0DDCF0CF078
:102166000BC0D9FF0CC0DAFF0950DF16FEEF10F0E6
:1021760004C0D9FF05C0DAFFDF30E832E832070BCA
:10218600076E010E086E072ACBEF10F0D8900836BE
:10219600072EC9EF10F004C0D9FF05C0DAFFDF50E3
:1021A600070B096E0950020D8A0EF324D96E000E34
:1021B600F420DA6EDECF0AF0DDCF0BF00AC0D9FFCD
:1021C6000BC0DAFF0850DF12FEEF10F00650076E64
:1021D600086A0850000AD8B4F3EF10F086EF10F042
:1021E6000750000AD8B48AEF10F0010AD8B4BBEF42
:1021F60010F086EF10F00D5012003D343E34446E60
:102206004450D8A409EF11F00BEF11F015EF11F0BF
:10221600000E3B6E000E3C6E000E3D6E000E3E6ED6
:1022260082EF11F03BC03FF03CC040F03DC041F0B2
:102236003EC042F0200E25EF11F0D89042324132D6
:1022460040323F32E82E20EF11F03F50436E3D8E74
:10225600FF0E3B16FF0E3C16FF0E3D16000E3E16F9
:10226600960E445E44BE3CEF11F03AEF11F052EF89
:1022760011F04450800A970FD8B044EF11F046EFA2
:1022860011F048EF11F00BEF11F0D8903E323D32CD
:102296003C323B32443E48EF11F06AEF11F01F0E1C
:1022A600446458EF11F05AEF11F062EF11F00BEFA2
:1022B60011F0D8903B363C363D363E364406445007
:1022C600D8A468EF11F06AEF11F05CEF11F04350FB
:1022D600D8B470EF11F072EF11F07AEF11F03E1EE4
:1022E6003D1E3C1E3B6C000E3C223D223E223BC066
:1022F6003BF03CC03CF03DC03DF03EC03EF012001D
:1023060020EE04F04550D9264650DA22DF50476EBB
:10231600C6504718F00B4718C66E000E2F6E000EFB
:10232600306E800E316EBF0E326E45C0D9FF46C08C
:10233600DAFFDECF04F0DECF05F0DECF06F0DECF2B
:1023460007F0000E43EC0EF004C016F005C017F0BF
:1023560006C018F007C019F0000E126E240E136E98
:10236600740E146E490E156E76EC0CF012C02BF03E
:1023760013C02CF014C02DF015C02EF00BEC08F095
:102386002BC03BF02CC03CF02DC03DF02EC03EF0E3
:1023960000EC11F03B50C86E1200C698C7B4D6EFD9
:1023A60011F0D8EF11F0EBEF11F0C7BADDEF11F035
:1023B600DFEF11F0EBEF11F0C950C7A0E5EF11F018
:1023C600E7EF11F0E0EF11F0C9CF66F00FEF12F072
:1023D600C7A4F0EF11F0F2EF11F00FEF12F0C950B1
:1023E6006550D8A4F9EF11F0FBEF11F001EF12F0F0
:1023F600550EC96E010E656E0FEF12F06504D8A476
:1024060007EF12F009EF12F00FEF12F0660EC96E29
:10241600000E656E0FEF12F0C6881200010E156EE3
:1024260012501310D8A41AEF12F01CEF12F020EF7E
:1024360012F0000E156E4DEF12F06EC016F012C0BF
:10244600D9FF13C0DAFFDF500F0B146E16501418A5
:10245600F80B1418166E12C0D9FF13C0DAFFDF3856
:10246600070B146E14461446144616501418C70B60
:102476001418166E169C12C0D9FF13C0DAFFDFAE11
:1024860002D0168E01D0169E160E0E6E000E0F6E20
:10249600C5EC12F0155012000E500F10D8A456EFCE
:1024A60012F058EF12F05AEF12F089EF12F06DC0E9
:1024B60011F00EC0D9FF0FC0DAFFDF500F0B106E00
:1024C60011501018F80B1018116E0EC0D9FF0FC05E
:1024D600DAFFDF38070B106E104610461046115013
:1024E6001018C70B1018116E119C0EC0D9FF0FC023
:1024F600DAFFDFAE02D0118E01D0119E110E046EEE
:10250600000E056E010E066E6AEC10F012000E50FB
:102516000F10D8A491EF12F093EF12F095EF12F08E
:10252600C4EF12F06CC011F00EC0D9FF0FC0DAFF75
:10253600DF500F0B106E11501018F80B1018116E9B
:102546000EC0D9FF0FC0DAFFDF38070B106E10463A
:102556001046104611501018C70B1018116E119C1A
:102566000EC0D9FF0FC0DAFFDFAE02D0118E01D048
:10257600119E110E046E000E056E000E066E6AECBC
:1025860010F012000E500F10D8B4CCEF12F0CEEFB0
:1025960012F0DFEF12F00EC0D9FF0FC0DAFFDF3006
:1025A600E832E832070B106E070E1064DDEF12F00A
:1025B600DFEF12F0E3EF12F0000E116EF9EF12F0FA
:1025C6000EC004F00FC005F0C8EC0FF0116E0EC07F
:1025D60004F00FC005F00EC0D9FF0FC0DAFF000EE1
:1025E600DFBE010E066E6AEC10F0116E115012007D
:1025F6009E0E0001CF6F000ED06F1DEC0FF07B6EAC
:102606007A0E126E000E136E11EC12F07B6E610ED6
:102616006618D8A411EF13F013EF13F01BEF13F0A5
:102626007A0E0E6E000E0F6E4FEC12F00AEF13F0DC
:10263600630E6618D8A422EF13F024EF13F00AEF06
:1026460013F07A0E0E6E000E0F6E8AEC12F00AEF81
:1026560013F007EF00F0360EF66E270EF76E000E3B
:10266600F86E00EE80F010EE2DF00900F5CFEEFFCB
:10267600E550E150FAE1E80EF66E270EF76E000E11
:10268600F86E00EE6FF010EE0CF00900F5CFEEFFDD
:10269600E550E150FAE100EEADF0220EEE6AE806F2
:1026A600FDE100EE48F0270EEE6AE806FDE17C90BB
:1026B6007C920001FBEF12F09D86A0869E96A19665
:1026C60020EE09F00450D9260550DA22DECF5CF060
:1026D600DDCF5DF020EE0BF00450D9260550DA224E
:1026E600DECF5AF0DDCF5BF020EE0DF00450D92698
:1026F6000550DA22DECFCDF0DDCFCEF0F28EF28CB1
:1027060012009E965A505B10D8B48CEF13F08EEFE1
:1027160013F09AEF13F002D89AEF13F00500FA6E51
:102726005A50FD6E5B50FE6EFF6AFA5012001200A0
:10273600800F810F820F830F840F890F8A0F8B0FF3
:102746008C0F8D0F920F930F940F950F960F00001D
:0D275600000006600200000000A02300004B
:1027640020EE04F00450D9260550DA22DF50066E1C
:10277400C6500618F00B0618C66E1200016EF290D1
:102784000150D8A4C8EF13F0CAEF13F0CCEF13F044
:10279400CCEF13F01200016EF2900150D8A4D5EFE3
:1027A40013F0D7EF13F0D9EF13F0D9EF13F01200B1
:1027B400016EF2900150D8A4E2EF13F0E4EF13F0AD
:1027C400E6EF13F0E6EF13F01200016EF290015001
:1027D400D8A4EFEF13F0F1EF13F0F3EF13F0F3EFEE
:1027E40013F01200685A622A1A622A0101010103D5
:1027F400A1924950B36E48C0B2FF12009E904B5054
:10280400CF6E4AC0CEFF1200F2944D50D76E4CC02A
:10281400D6FF12009E9267C0CCFF12009486948863
:102824001200A1961200F0921200F0901200F2929F
:1028340012009D981200A19012009E9412009E9C7A
:0628440012001200120058
:020000040020DA
:08000000FFFFFFFFFFFFFFFF00
:020000040030CA
:0E000000FF020912FF8181FF0FC00FE00F40C9
:00000001FF
